:10027E0044697374616E63653A0053657420506F00
:10028E00696E743A00636D004E6F7420696E207251
:06029E00616E676521009E
:0B03B100011000020E0000021100000D
:100003001201EF7BFF7A02797E7D017F011202C923
:100013007BFF7A0279887D017F021202C97BFF7A16
:100023000279937D0F7F011202C97BFF7A027993D4
:100033007D0F7F021202C9758921E4F58CF58AC20E
:100043008CD2A27F0F7E0012032AC2A230A3FDD25C
:100053008C20A3FDC28CAF8C750E008F0FE50F753E
:100063000F00F50EAF8AEF250FF50FE4350EF50EF1
:10007300D3E50F9464E50E94004049E50F94A8E599
:100083000E9461503FAE0EAF0F7C007D3A12019A81
:100093008F10E51075F064842430FB7D0B7F011213
:1000A300034AE51075F06484E5F075F00A842430A2
:1000B300FF1203A1E51075F00A84E5F02430FF1266
:1000C30003A180127F011202EA7BFF7A0279967DF7
:0E00D300017F021202C9E4F58CF58A02004496
:10038F00EF3392A7EFA2E692A6A2E592A5A2E4927E
:02039F00A42296
:0703630012038FD2A1C2A119
:10036A00EFA2E392A7A2E292A6A2E192A51392A417
:01037A002260
:0703C500AE071FEE70FA22E3
:1001EF00C2A0C2A17F147E0012032A7F0312036AEA
:1001FF00D2A1C2A17F057E0012032A7F0312036AD8
:10020F00D2A1C2A17F641203C57F0312036AD2A1D8
:10021F00C2A17F017E0012032A7F0212036AD2A1BC
:10022F00C2A11F7E0012032A7F281202EA7F0C123E
:0C023F0002EA7F011202EA7F060202EAD6
:1002EA00AE07C2A0120363D2A1C2A1EF24FE60032B
:1002FA000470077F027E0002032A7F251203C522AB
:1003A100AE07D2A0120363D2A1C2A17F290203C565
:02034A008B081E
:10034C00EF640170047F8080027FC0ED142FFF12D8
:07035C0002EAAF080203A151
:06030A008B0B8A0C890D2B
:10031000E4FDAB0BAA0CA90D8D8275830012016D53
:09032000FF60061203A10D80E943
:0103290022B1
:0602C9008B088A09890A76
:1002CF00EF640170047F8080027FC0ED142FFF1256
:0B02DF0002EAAB08AA09A90A02030A00
:06024B008B138A148915D3
:10025100EF75F008A42440FF1202EAE4FDEDD39407
:1002610007748094805015AB13AA14A9158D82755B
:0C027100830012016DFF1203A10D80E15B
:01027D00225E
:10032A00E4FDFCC3ED9FEC9E5015E4FBFA0BBB0009
:0F033A00010AEB64714A70F50DBD00010C80E4FF
:010349002291
:10037B00C29FD29E53890F438920758DFDD28ED299
:04038B0099D29C2245
:0803BD003099FDC2998F9922CD
:0602A4008B168A17891871
:1002AA00E4FEAB16AA17A9188E8275830012016D97
:0E02BA00FFFD3395E04D60061203BD0E80E49B
:0102C8002213
:0603CC00A298E433FF22B9
:0503D200C298AF992262
:030000000200E11A
:0C00E100787FE4F6D8FD75811802012834
:10016D00BB010CE58229F582E5833AF583E0225047
:10017D0006E92582F8E622BBFE06E92582F8E22291
:0D018D00E58229F582E5833AF583E49322AB
:10019A00BC000BBE0029EF8DF084FFADF022E4CC49
:1001AA00F875F008EF2FFFEE33FEEC33FCEE9DEC12
:1001BA00984005FCEE9DFE0FD5F0E9E4CEFD22ED58
:1001CA00F8F5F0EE8420D21CFEADF075F008EF2FA2
:1001DA00FFED33FD4007985006D5F0F222C398FD93
:0501EA000FD5F0EA2230
:1000ED00020003E493A3F8E493A34003F68001F226
:1000FD0008DFF48029E493A3F85407240CC8C33314
:10010D00C4540F4420C8834004F456800146F6DFE2
:10011D00E4800B01020408102040809003B1E47EBE
:10012D00019360BCA3FF543F30E509541FFEE493D7
:10013D00A360010ECF54C025E060A840B8E493A39E
:10014D00FAE493A3F8E493A3C8C582C8CAC583CAC9
:10015D00F0A3C8C582C8CAC583CADFE9DEE780BE81
:0103BC000040
:00000001FF
