:1003A30044697374616E63653A0053657420506FDA
:1003B300696E743A00636D00456E746572207370E4
:1003C3006163696E6720627920585858636D3A20DB
:1003D30000636D202E2E2E0053657420706F696E9E
:1003E3007420696E76616C696421004E6F742069B4
:0903F3006E2072616E6765210045
:10050600011432040800000032011300020C00003E
:0405160002150000CA
:100003001203477BFF7A0379A37D017F0112045416
:100013007BFF7A0379AD7D017F021204547BFF7A63
:100023000379B87D0F7F011204547BFF7A0379B8FB
:100033007D0F7F02120454758921E4F58CF58AC281
:100043008C758DFDD28ED299D29CC29FD29EC298BE
:100053007BFF7A0379BB12042FD2A27F0F7E00129B
:1000630004B5C2A230A3FDD28C20A3FDC28CAF8CF9
:10007300750C008F0DE50D750D00F50CAF8AEF259E
:100083000DF50DE4350CF50CD3E50D9464E50C94F6
:100093000050030201FCE50D94A8E50C94614003B4
:1000A3000201FCAE0CAF0D7C007D3A1202558F139A
:1000B300E51375F064842430FB7D0B7F011204D5B6
:1000C300E51375F06484E5F075F00A842430FF12BB
:1000D3000541E51375F00A84E5F02430FF1205416C
:1000E300E51475F064842430FB7D0B7F021204D584
:1000F300E51475F06484E5F075F00A842430FF128A
:100103000541E51475F00A84E5F02430FF1205413A
:100113002098030201E4C298E5992480FFAE167487
:100123000E2EF8A607740E2EF8E6FF7E00C3943059
:1001330074809480401CD3EF94397480948050125F
:10014300740E2516F8E6FF1205510516E516700222
:100153000515E5166403451560030201E4E50F2464
:10016300D0FFE434FFFE7C007D0A120243AA06ABF3
:1001730007E50E24D0FFE434FFFE7D64120243EF53
:100183002BFFEE3AFEE51024D0FDEC34FFCD2FFF1C
:10019300ED3EFE3395E08F0B8E0AF509F508E4F585
:1001A30015F5167BFF7A0379D412042F7F0D120500
:1001B30051E47FFFFEFDFCAB0BAA0AA909A808C303
:1001C3001202AA5005850B14800E7BFF7A0379DB9C
:1001D30012042F7F0D1205517BFF7A0379BB1204A2
:1001E3002FE513D395144004D290C291E513C39520
:1001F300145018C290D29180127F011204757BFFB4
:100203007A0379EE7D017F02120454E4F58CF58ABA
:0302130002005C8A
:10052F00EF3392A7EFA2E692A6A2E592A5A2E492DC
:02053F00A422F4
:0704EE0012052FD2A1C2A1EB
:1004F500EFA2E392A7A2E292A6A2E192A51392A48B
:0105050022D3
:07055900AE071FEE70FA224D
:10034700C2A0C2A17F147E001204B57F031204F578
:10035700D2A1C2A17F057E001204B57F031204F566
:10036700D2A1C2A17F641205597F031204F5D2A15D
:10037700C2A17F017E001204B57F021204F5D2A14B
:10038700C2A11F7E001204B57F281204757F0C12CC
:0C03970004757F011204757F06020475D6
:10047500AE07C2A01204EED2A1C2A1EF24FE600312
:100485000470077F027E000204B57F2512055922FC
:10054100AE07D2A01204EED2A1C2A17F29020559A1
:0204D5008B1783
:1004D700EF640170047F8080027FC0ED142FFF124C
:0704E7000475AF1702054187
:060495008B1A8A1B891C72
:10049B00E4FDAB1AAA1BA91C8D82758300120216F0
:0904AB00FF60061205410D80E915
:0104B4002225
:060454008B178A188919BC
:10045A00EF640170047F8080027FC0ED142FFF12C9
:0B046A000475AB17AA18A9190204952D
:0603FC008B1D8A1E891F03
:10040200EF75F008A42440FF120475E4FDEDD394C7
:1004120007748094805015AB1DAA1EA91F8D82758A
:0C0422008300120216FF1205410D80E15C
:01042E0022AB
:1004B500E4FDFCC3ED9FEC9E5015E4FBFA0BBB007D
:0F04C500010AEB64714A70F50DBD00010C80E473
:0104D4002205
:10051B00C29FD29E53890F438920758DFDD28ED2F7
:04052B0099D29C22A3
:080551003099FDC2998F992237
:06042F008B178A188919E1
:10043500E4FEAB17AA18A9198E827583001202165D
:0E044500FFFD3395E04D60061205510E80E478
:010453002286
:06056000A298E433FF2223
:05056600C298AF9922CC
:030000000202BB3E
:0C02BB00787FE4F6D8FD75811F02030275
:10021600BB010CE58229F582E5833AF583E022509D
:1002260006E92582F8E622BBFE06E92582F8E222E7
:0D023600E58229F582E5833AF583E4932201
:10024300EF8DF0A4A8F0CF8CF0A428CE8DF0A42ECF
:02025300FE2289
:10025500BC000BBE0029EF8DF084FFADF022E4CC8D
:10026500F875F008EF2FFFEE33FEEC33FCEE9DEC56
:10027500984005FCEE9DFE0FD5F0E9E4CEFD22ED9C
:10028500F8F5F0EE8420D21CFEADF075F008EF2FE6
:10029500FFED33FD4007985006D5F0F222C398FDD7
:0502A5000FD5F0EA2274
:1002AA00EB9FF5F0EA9E42F0E99D42F0E89C45F0AA
:0102BA002221
:1002C700020003E493A3F8E493A34003F68001F24A
:1002D70008DFF48029E493A3F85407240CC8C33338
:1002E700C4540F4420C8834004F456800146F6DF07
:1002F700E4800B0102040810204080900506E47E8C
:10030700019360BCA3FF543F30E509541FFEE493FB
:10031700A360010ECF54C025E060A840B8E493A3C2
:10032700FAE493A3F8E493A3C8C582C8CAC583CAED
:10033700F0A3C8C582C8CAC583CADFE9DEE780BEA5
:01051A0000E0
:00000001FF
