:1003AC0044697374616E63653A0053657420506FD1
:1003BC00696E743A00636D00456E746572207370DB
:1003CC006163696E6720627920585858636D3A20D2
:1003DC0000636D202E2E2E0053657420706F696E95
:1003EC007420696E76616C696421004E6F742069AB
:0903FC006E2072616E676521003C
:10050F00011432040800000032011300020C000035
:04051F0002150000C1
:100003001203507BFF7A0379AC7D017F0112045DFB
:100013007BFF7A0379B67D017F0212045D7BFF7A51
:100023000379C17D0F7F0112045D7BFF7A0379C1E0
:100033007D0F7F0212045D758921E4F58CF58AC278
:100043008C758DFDD28ED299D29CC29FD29EC298BE
:100053007BFF7A0379C4120438D2A27F0F7E001289
:1000630004BEC2A230A3FDD28C20A3FDC28CAF8CF0
:10007300750C008F0DE50D750D00F50CAF8AEF259E
:100083000DF50DE4350CF50CD3E50D9464E50C94F6
:10009300005003020205E50D94A8E50C94614003AA
:1000A300020205AE0CAF0D7C007D3A12025E8F1387
:1000B300E51375F064842430FB7D0B7F011204DEAD
:1000C300E51375F06484E5F075F00A842430FF12BB
:1000D300054AE51375F00A84E5F02430FF12054A5A
:1000E300E51475F064842430FB7D0B7F021204DE7B
:1000F300E51475F06484E5F075F00A842430FF128A
:10010300054AE51475F00A84E5F02430FF12054A28
:100113002098030201E4C298E5992480FFAE167487
:100123000E2EF8A607740E2EF8E6FF7E00C3943059
:1001330074809480401CD3EF94397480948050125F
:10014300740E2516F8E6FF12055A0516E516700219
:100153000515E5166403451560030201E4E50F2464
:10016300D0FFE434FFFE7C007D0A12024CAA06ABEA
:1001730007E50E24D0FFE434FFFE7D6412024CEF4A
:100183002BFFEE3AFEE51024D0FDEC34FFCD2FFF1C
:10019300ED3EFE3395E08F0B8E0AF509F508E4F585
:1001A30015F5167BFF7A0379DD1204387F0D1205EE
:1001B3005AE47FFFFEFDFCAB0BAA0AA909A808C3FA
:1001C3001202B35005850B14800E7BFF7A0379E48A
:1001D3001204387F0D12055A7BFF7A0379C4120487
:1001E30038E513D395144004D290C291E513C39517
:1001F300145004C290D291E513B51418C290C29161
:1002030080127F0112047E7BFF7A0379F77D017FE1
:0C0213000212045DE4F58CF58A02005C28
:10053800EF3392A7EFA2E692A6A2E592A5A2E492D3
:02054800A422EB
:0704F700120538D2A1C2A1D9
:1004FE00EFA2E392A7A2E292A6A2E192A51392A482
:01050E0022CA
:07056200AE071FEE70FA2244
:10035000C2A0C2A17F147E001204BE7F031204FE5D
:10036000D2A1C2A17F057E001204BE7F031204FE4B
:10037000D2A1C2A17F641205627F031204FED2A142
:10038000C2A17F017E001204BE7F021204FED2A130
:10039000C2A11F7E001204BE7F2812047E7F0C12B1
:0C03A000047E7F0112047E7F0602047EB2
:10047E00AE07C2A01204F7D2A1C2A1EF24FE600300
:10048E000470077F027E000204BE7F2512056222E1
:10054A00AE07D2A01204F7D2A1C2A17F2902056286
:0204DE008B177A
:1004E000EF640170047F8080027FC0ED142FFF1243
:0704F000047EAF1702054A6C
:06049E008B1A8A1B891C69
:1004A400E4FDAB1AAA1BA91C8D8275830012021FDE
:0904B400FF600612054A0D80E903
:0104BD00221C
:06045D008B178A188919B3
:10046300EF640170047F8080027FC0ED142FFF12C0
:0B047300047EAB17AA18A91902049E12
:060405008B1D8A1E891FF9
:10040B00EF75F008A42440FF12047EE4FDEDD394B5
:10041B0007748094805015AB1DAA1EA91F8D827581
:0C042B00830012021FFF12054A0D80E141
:0104370022A2
:1004BE00E4FDFCC3ED9FEC9E5015E4FBFA0BBB0074
:0F04CE00010AEB647B4A70F50DBD00010C80E460
:0104DD0022FC
:10052400C29FD29E53890F438920758DFDD28ED2EE
:0405340099D29C229A
:08055A003099FDC2998F99222E
:060438008B178A188919D8
:10043E00E4FEAB17AA18A9198E8275830012021F4B
:0E044E00FFFD3395E04D600612055A0E80E466
:01045C00227D
:06056900A298E433FF221A
:05056F00C298AF9922C3
:030000000202C435
:0C02C400787FE4F6D8FD75811F02030B63
:10021F00BB010CE58229F582E5833AF583E0225094
:10022F0006E92582F8E622BBFE06E92582F8E222DE
:0D023F00E58229F582E5833AF583E49322F8
:10024C00EF8DF0A4A8F0CF8CF0A428CE8DF0A42EC6
:02025C00FE2280
:10025E00BC000BBE0029EF8DF084FFADF022E4CC84
:10026E00F875F008EF2FFFEE33FEEC33FCEE9DEC4D
:10027E00984005FCEE9DFE0FD5F0E9E4CEFD22ED93
:10028E00F8F5F0EE8420D21CFEADF075F008EF2FDD
:10029E00FFED33FD4007985006D5F0F222C398FDCE
:0502AE000FD5F0EA226B
:1002B300EB9FF5F0EA9E42F0E99D42F0E89C45F0A1
:0102C3002218
:1002D000020003E493A3F8E493A34003F68001F241
:1002E00008DFF48029E493A3F85407240CC8C3332F
:1002F000C4540F4420C8834004F456800146F6DFFE
:10030000E4800B010204081020408090050FE47E79
:10031000019360BCA3FF543F30E509541FFEE493F2
:10032000A360010ECF54C025E060A840B8E493A3B9
:10033000FAE493A3F8E493A3C8C582C8CAC583CAE4
:10034000F0A3C8C582C8CAC583CADFE9DEE780BE9C
:0105230000D7
:00000001FF
